:0400000087EF04F092
:08000800046ED8CF05F0E0CF33
:1000100006F00001E9CF0CF0EACF07F0E1CF08F0DD
:10002000E2CF09F0D9CF0AF0DACF0BF0F3CF12F01C
:10003000F4CF13F0FACF14F000C00EF001C00FF0AF
:1000400002C010F003C011F0F2AA2AEF00F0F2B4DF
:1000500087EF00F09DAA30EF00F09EBA51EF00F05C
:100060000EC000F00FC001F010C002F011C003F08C
:100070000CC0E9FF07C0EAFF078E08C0E1FF09C016
:10008000E2FF0AC0D9FF0BC0DAFF12C0F3FF13C0B2
:10009000F4FF14C0FAFF045006C0E0FF05C0D8FF0B
:1000A00010009EAAFED7AECF1CF0036A3B50230F70
:1000B000E96E000E0320EA6E1CC0EFFF3B2A1E8093
:1000C0001D801C500D0801E11F803B500F0801E10D
:1000D0003B6A23503E080CE1020E3B5C036A230F8F
:1000E000E96E000E0320EA6EEF503C0801E120802B
:1000F000036A3B50230FE96E000E0320EA6EEF50B7
:100100003B0802E12180412A9E9A30EF00F03C0E2C
:10011000D76EB00ED66E402AF29430EF00F0496EE2
:100120006772657361206C6F73206461746F7320F4
:100130006465206C61206D616E6572613A203E6F6E
:1001400070313B6F70323B6F70333B636172616340
:100150007465723C00000A200D004572726F7220B7
:100160007265696E677265736120636F7272656331
:1001700074616D656E7465206C6F73206461746F5B
:10018000732E2E2E00000A200D000900F5520DE0FE
:10019000F6CF49F0F7CF4AF0F5509EA8FED7AD6EE6
:1001A00049C0F6FF4AC0F7FFF0D712009EA8FED75D
:1001B000AD6EF1EF04F05850D8B471D0006E5C50C1
:1001C000D8B46DD0002604E3810E002668E204D086
:1001D0007F0E005E64E363E059C060F05D50601A1A
:1001E000598E5D8E5B505F02F4CF62F05A505E0212
:1001F000F4CF03F0F3CF61F05F02F3506226F450C6
:100200006122000E03225B505E02F3506226F4501E
:100210006122000E026A0322022259505F02F3504B
:100220006126F4500322000E022259505E02F35060
:100230000326F4500222000E016A01225B505D0287
:10024000F3506126F4500322000E022201225A507C
:100250005D02F3500326F4500222000E0122595091
:100260005D02F3500226F4500122002A01BE05D09F
:1002700061360336023601360006000E61AE0AD042
:10028000032A02220122015005E1025003E103503A
:1002900001E1002A60BE018E60AE019E04D0006ABA
:1002A000016A026A036A12008E0E006E5DC001F0E0
:1002B0005CC002F0036A015209E102C001F0026A67
:1002C000080E005E015202E1006A08D0D89001BE1B
:1002D00004D0023601360006F9D7019E12005C50A8
:1002E000D8B4A5D0686E6050D8B4A1D0685E05E3DC
:1002F0007F0E6826D8B09BD006D0810E685ED8A04D
:1003000096D0D8B494D068C000F0016A026A036A3B
:10031000676A5DC066F0668E5EC065F05FC064F0BF
:10032000190E686E6350645E0DE2010E655E0AE2AE
:10033000665E08E2675E06E2672A662A652A6350FF
:10034000642628D06250655E12E2010E665E0FE2FE
:10035000675E0DE2672A662A62506526635064264E
:1003600019E3652A17E1662A15E1672A13D061505F
:100370008009665E0EE2010E675E0BE2672A61503D
:100380008009662662506526E9E3662AE7E1672A66
:10039000E5D70380682E01D00BD0D890643665363F
:1003A00066366736D8900336023601366936BAD7D4
:1003B00069A006D0D890013202320332693202D0ED
:1003C000000635E069BE1ED0D890643665366636C4
:1003D00067366350645E07E2010E655E04E2665EA6
:1003E00002E2675E1AE36250655E05E2010E665E38
:1003F00002E2675E12E361508009665E03E2010E6D
:10040000675E0BE3032A09E1022A07E1012A05E1FD
:10041000002A0DE00132023203325DC068F0615003
:10042000681A68AE02D0018E06D0019E04D0006A20
:10043000016A026A036AD0EF03F0800ED8B2611A33
:10044000666A676A5DC065F06150651A5C50D8B431
:10045000DCD0646E006E6050D8B4E0D0645ED8B476
:1004600081D03DE361C06AF06A8E62C069F063C00A
:1004700068F0676AD8906A32693268326732642EEF
:10048000F8D765AE03D06680DDD06690649066884C
:10049000EA6A5F0EE96EE9D0669865BE0AD064A08C
:1004A00013D06A32693268326732002AD8B4C5D0B4
:1004B0000BD06ABE0CD0D8906736683669366A367B
:1004C0000006D8B4BAD0F5D7668C6BD0669C5DC0F8
:1004D00065F05DAE02D06A8EA9D06A9EA7D060C0DA
:1004E00064F060C000F05C50645E5DC06AF06A8ECB
:1004F0005EC069F05FC068F0676AD8906A3269329E
:1005000068326732642EF8D765AE03D066829AD01F
:1005100066926490668AEA6A630EE96EA6D0669A6D
:1005200065BE0AD064A013D06A326932683267327D
:10053000002AD8B482D00BD06ABE0CD0D8906736CF
:10054000683669366A360006D8B477D0F5D7668E35
:1005500028D0669E61C065F061AE02D06A8E66D01A
:100560006A9E64D061C06AF06A8E62C069F063C03E
:1005700068F065AE04D06A9E668464D06694676A4B
:100580006490EA6A5F0EE96E70D065BE1CD05DC0F3
:1005900065F064A006D06A32693268326732002A98
:1005A0004CE067AE0BD0682A09E1692A07E16A2AA4
:1005B00005E16A3269326832002A3FE066BC86D7BC
:1005C00066BEC7D71CD0800E6A1A6AAE04D03AD075
:1005D00061C065F00AD05DC065F06A5206E16952FB
:1005E00004E1685202E1006A21D06ABE08D0D890C6
:1005F0006736683669366A36002EF7D71ED065AE84
:1006000002D06A8E13D06A9E11D060C000F061C023
:100610006AF062C069F063C068F008D05CC000F0A6
:100620005DC06AF05EC069F05FC068F06AC001F04A
:1006300069C002F068C003F034D0006A016A026A3F
:10064000036A2FD0676A681E691E6A1E671E672AC2
:1006500005E1682A03E1692A01E16A2A66B015D733
:1006600066B256D766B48AD7B3D7EF50682605E38B
:10067000692A03E16A2AD8B46480ED52EF506926F2
:1006800003E36A2AD8B46480ED52EF50EFBE01D084
:10069000800A6A26D8B0648066B8FED666BA3FD7AC
:1006A00074D71200506A4F6A4E6A7F0E4D6E546ABC
:1006B000536A526A516A558055925594576A495007
:1006C0004A1005E1006A016A026A036A03D15750C1
:1006D000572A036A4924E96E4A500320EA6EEFCF95
:1006E00056F05652D8B4BBD055A00FD05650200863
:1006F0000CE0559056502B0803E15592A5D005D03B
:1007000056502D0802E155829FD055B007D0565063
:100710002E0804E155B402D0558496D055B091D03E
:1007200056502F08D8B08DD056503908D8A089D04F
:10073000300E565E55A44FD050C05BF04FC05AF0FB
:100740004EC059F04DC058F05F6A5E6A200E5D6E73
:10075000820E5C6E30DD03C050F002C04FF001C06D
:100760004EF000C04DF05D6A56C05CF09DDD03C0E8
:100770005BF002C05AF001C059F000C058F003C04D
:100780005FF002C05EF001C05DF000C05CF050C0E0
:1007900063F04FC062F04EC061F04DC060F09FD575
:1007A000D89254C05FF053C05EF052C05DF051C0AB
:1007B0005CF003C063F002C062F001C061F000C0F1
:1007C00060F03BDE03C054F002C053F001C052F0B1
:1007D00000C051F035D05B6A5A6A200E596E820E05
:1007E000586E54C05FF053C05EF052C05DF051C00F
:1007F0005CF0E1DC03C05BF002C05AF001C059F0CC
:1008000000C058F05D6A56C05CF04EDDD8925BC007
:100810005FF05AC05EF059C05DF058C05CF003C094
:1008200063F002C062F001C061F000C060F005DE5C
:1008300003C054F002C053F001C052F000C051F0A8
:1008400003D055B001D00BD05750572A036A492422
:10085000E96E4A500320EA6EEFCF56F042D755A218
:1008600017D05B6A5A6A800E596E7F0E586E54C05C
:100870005FF053C05EF052C05DF051C05CF09BDC95
:1008800003C054F002C053F001C052F000C051F058
:100890004B504C1017E057520CE057064BC0E9FF85
:1008A0004CC0EAFF57504924EF6E000E4A20EC6E10
:1008B00009D04BC0E9FF4CC0EAFF4AC0ECFFED5243
:1008C00049C0EFFF51C000F052C001F053C002F028
:1008D00054C003F012008E0E006E4950005E4AC0F4
:1008E00002F04BC001F0028E005209E0D890025293
:1008F00002E1015204E002320132002EF7D74AAE83
:1009000005D0011E021E012AD8B4022A1200F86A7C
:10091000D09E078EB886A00EAF6E010EB06EA60EEA
:10092000AC6E900EAB6E3B6A3C6A3D6A3E6A3F908D
:100930003F923F943F963F983F9A406A416A426A8D
:10094000010E436E446E456EC150C00B0F09C16E5F
:10095000070EB46E05D002001600001840230000F8
:10096000000EF86E090EF76E560EF66E0900F55081
:10097000006E000A13E00900F550016EE8BE05D0D4
:100980000F0BEA6E0900F5CFE9FF01BC090001ACCD
:100990000900F5CFEEFF004EE9D7F9D7F86A000E4F
:1009A000926E936E800E946E000E956E820ED56ED2
:1009B0003C0ED76EB00ED66EF28AC00EF2129D8A31
:1009C0001E0EF66E010EF76EC5EC00F0560EF66EBA
:1009D000010EF76EC5EC00F01EA004D01C50D6EF3F
:1009E00000F01E9021A06CD02190412C21D03F809E
:1009F000020E466E465004081AE3036A4650320F50
:100A0000016E000E032203C04AF0036A4650230F12
:100A1000E96E000E0320EA6EEFCF4BF04AC0EAFF0A
:100A200001C0E9FF4BC0EFFF2280462AE3D748D040
:100A30004150020821E13F82060E476E47500808E8
:100A40001AE3036A4750350F016E000E032203C0FC
:100A50004AF0036A4750230FE96E000E0320EA6E46
:100A6000EFCF4BF04AC0EAFF01C0E9FF4BC0EFFFF8
:100A70002280472AE3D724D04150030821E1416A6C
:100A80003F840A0E486E48500C081AE3036A485027
:100A9000380F016E000E032203C04AF0036A48506B
:100AA000230FE96E000E0320EA6EEFCF4BF04AC031
:100AB000EAFF01C0E9FF4BC0EFFF2280482AE3D7DD
:100AC00022A041D03FA014D03F903C6A4A6A320E27
:100AD000496E4C6A4B6AE6DD03C04CF002C04BF035
:100AE00001C04AF000C049F0F6DE01C03CF02BD056
:100AF0003FA214D03F923D6A4A6A350E496E4C6A55
:100B00004B6AD0DD03C04CF002C04BF001C04AF08C
:100B100000C049F0E0DE01C03DF015D03FA413D085
:100B20003F943E6A4A6A380E496E4C6A4B6ABADD97
:100B300003C04CF002C04BF001C04AF000C049F0C5
:100B4000CADE01C03EF01DA03BD01D9020A022D0E7
:100B500020901FA01FD01F903C500C0B02E03F863E
:100B600005D03C500C0B0C0801E03F963C50110B9B
:100B700002E03F8805D03C50110B110801E03F987E
:100B80003C50420B02E03F8A05D03C50420B4208E9
:100B900001E03F9A3FA608D0D890433643508008E2
:100BA00002E1010E436E0CD05A0EF66E010EF76E86
:100BB000C5EC00F0860EF66E010EF76EC5EC00F087
:040BC0000BD703004C
:020000040030CA
:0E0000000001181E000581000FC00FE00F4028
:00000001FF
;PIC18F4620
;CRC=B4A2  CREATED="28-jun.-19 13:55"
