:04000000C2EF00F05B
:08000800046ED8CF05F0E0CF33
:1000100006F00001E9CF0CF0EACF07F0E1CF08F0DD
:10002000E2CF09F0D9CF0AF0DACF0BF0F3CF12F01C
:10003000F4CF13F0FACF14F000C00EF001C00FF0AF
:1000400002C010F003C011F0F2AA2AEF00F0F2B4DF
:1000500086EF00F09DAA30EF00F09EBA51EF00F05D
:100060000EC000F00FC001F010C002F011C003F08C
:100070000CC0E9FF07C0EAFF078E08C0E1FF09C016
:10008000E2FF0AC0D9FF0BC0DAFF12C0F3FF13C0B2
:10009000F4FF14C0FAFF045006C0E0FF05C0D8FF0B
:1000A00010009EAAFED7AECF1CF0036A3B50220F71
:1000B000E96E000E0320EA6E1CC0EFFF3B2A1E8093
:1000C0001D801C500D0801E11F803B500F0801E10D
:1000D0003B6A22503E080CE1020E3B5C036A220F91
:1000E000E96E000E0320EA6EEF503C0801E120802B
:1000F000036A3B50220FE96E000E0320EA6EEF50B8
:100100003B0801E121809E9A30EF00F03C0ED76E53
:10011000B00ED66E3A2AF29430EF00F0496E677254
:10012000657361206C6F73206461746F7320646504
:10013000206C61206D616E6572613A203E6F703196
:100140003B6F70323B6F70333B6361726163746508
:10015000723C00000A200D000900F5520DE0F6CFB8
:1001600041F0F7CF42F0F5509EA8FED7AD6E41C0EA
:10017000F6FF42C0F7FFF0D712009EA8FED7AD6E83
:1001800020EF01F0F86AD09E078EB886A00EAF6E01
:10019000010EB06EA60EAC6E900EAB6E3A6A3B6A64
:1001A0003C6A3D6A3E6A3F6A40904092C150C00B33
:1001B0000F09C16E070EB46E05D0020016000018BC
:1001C00040220000000EF86E010EF76EBA0EF66EB9
:1001D0000900F550006E000A13E00900F550016EA9
:1001E000E8BE05D00F0BEA6E0900F5CFE9FF01BCB0
:1001F000090001AC0900F5CFEEFF004EE9D7F9D7B1
:10020000F86A000E926E936E800E946E000E956EDC
:10021000820ED56E3C0ED76EB00ED66EF28AC00E30
:10022000F2129D8A1C0EF66E010EF76E95DF540ECB
:10023000F66E010EF76E90DF1EA003D01C509DD706
:060240001E90FAD7030036
:020000040030CA
:0E0000000001181E000581000FC00FE00F4028
:00000001FF
;PIC18F4620
;CRC=2E91  CREATED="28-jun.-19 13:04"
