:0400000066EF00F0B7
:08000800046ED8CF05F0E0CF33
:1000100006F00001E9CF0CF0EACF07F0E1CF08F0DD
:10002000E2CF09F0D9CF0AF0DACF0BF0F3CF12F01C
:10003000F4CF13F0FACF14F000C00EF001C00FF0AF
:1000400002C010F003C011F0F2AA2AEF00F0F2B4DF
:100050005EEF00F09DAA30EF00F09EBA51EF00F085
:100060000EC000F00FC001F010C002F011C003F08C
:100070000CC0E9FF07C0EAFF078E08C0E1FF09C016
:10008000E2FF0AC0D9FF0BC0DAFF12C0F3FF13C0B2
:10009000F4FF14C0FAFF045006C0E0FF05C0D8FF0B
:1000A00010009EAAFED7AECF1CF01E801D801C50F3
:1000B0000D0801E11F809E9A30EF00F03C0ED76ED4
:1000C000B00ED66E202AF29430EF00F0F86AD09E7F
:1000D000078EB886A00EAF6E010EB06EA60EAC6E87
:1000E000900EAB6E206A226A216A246A800E236E0B
:1000F00025902592C150C00B0F09C16E070EB46E3A
:10010000166A176A000E926E936E800E946E000E41
:10011000956E820ED56E3C0ED76EB00ED66EF28AFC
:0A012000C00EF2129D8AFFD7030003
:020000040030CA
:0E0000000001181E000581000FC00FE00F4028
:00000001FF
;PIC18F4620
;CRC=DB68  CREATED="28-jun.-19 12:43"
