:040000006FEF04F0AA
:08000800046ED8CF05F0E0CF33
:1000100006F00001E9CF0CF0EACF07F0E1CF08F0DD
:10002000E2CF09F0D9CF0AF0DACF0BF0F3CF12F01C
:10003000F4CF13F0FACF14F000C00EF001C00FF0AF
:1000400002C010F003C011F0F2AA2AEF00F0F2B4DF
:1000500087EF00F09DAA30EF00F09EBA51EF00F05C
:100060000EC000F00FC001F010C002F011C003F08C
:100070000CC0E9FF07C0EAFF078E08C0E1FF09C016
:10008000E2FF0AC0D9FF0BC0DAFF12C0F3FF13C0B2
:10009000F4FF14C0FAFF045006C0E0FF05C0D8FF0B
:1000A00010009EAAFED7AECF1CF0036A3B50230F70
:1000B000E96E000E0320EA6E1CC0EFFF3B2A1E8093
:1000C0001D801C500D0801E11F803B500F0801E10D
:1000D0003B6A23503E080CE1020E3B5C036A230F8F
:1000E000E96E000E0320EA6EEF503C0801E120802B
:1000F000036A3B50230FE96E000E0320EA6EEF50B7
:100100003B0802E121803F2A9E9A30EF00F03C0E2E
:10011000D76EB00ED66E3E2AF29430EF00F0496EE4
:100120006772657361206C6F73206461746F7320F4
:100130006465206C61206D616E6572613A203E6F6E
:1001400070313B6F70323B6F70333B636172616340
:100150007465723C00000A200D000900F5520DE0A4
:10016000F6CF44F0F7CF45F0F5509EA8FED7AD6E20
:1001700044C0F6FF45C0F7FFF0D712009EA8FED797
:10018000AD6ED0EF04F05350D8B471D0006E57501C
:10019000D8B46DD0002604E3810E002668E204D0B6
:1001A0007F0E005E64E363E054C05BF058505B1A5E
:1001B000548E588E56505A02F4CF5DF05550590265
:1001C000F4CF03F0F3CF5CF05A02F3505D26F45005
:1001D0005C22000E032256505902F3505D26F45063
:1001E0005C22000E026A0322022254505A02F3508B
:1001F0005C26F4500322000E022254505902F350A0
:100200000326F4500222000E016A012256505802C1
:10021000F3505C26F4500322000E022201225550B6
:100220005802F3500326F4500222000E01225450CB
:100230005802F3500226F4500122002A01BE05D0D4
:100240005C360336023601360006000E5CAE0AD07C
:10025000032A02220122015005E1025003E103506A
:1002600001E1002A5BBE018E5BAE019E04D0006AF4
:10027000016A026A036A12008E0E006E58C001F015
:1002800057C002F0036A015209E102C001F0026A9C
:10029000080E005E015202E1006A08D0D89001BE4B
:1002A00004D0023601360006F9D7019E12005750DD
:1002B000D8B4A5D0636E5B50D8B4A1D0635E05E31B
:1002C0007F0E6326D8B09BD006D0810E635ED8A087
:1002D00096D0D8B494D063C000F0016A026A036A71
:1002E000626A58C061F0618E59C060F05AC05FF018
:1002F000190E636E5E505F5E0DE2010E605E0AE2F3
:10030000615E08E2625E06E2622A612A602A5E504D
:100310005F2628D05D50605E12E2010E615E0FE242
:10032000625E0DE2622A612A5D5060265E505F26A1
:1003300019E3602A17E1612A15E1622A13D05C50A3
:100340008009615E0EE2010E625E0BE2622A5C5081
:10035000800961265D506026E9E3612AE7E1622AAF
:10036000E5D70380632E01D00BD0D8905F3660367E
:1003700061366236D8900336023601366436BAD713
:1003800064A006D0D890013202320332643202D027
:10039000000635E064BE1ED0D8905F366036613608
:1003A00062365E505F5E07E2010E605E04E2615EEF
:1003B00002E2625E1AE35D50605E05E2010E615E7C
:1003C00002E2625E12E35C508009615E03E2010EAC
:1003D000625E0BE3032A09E1022A07E1012A05E133
:1003E000002A0DE001320232033258C063F05C5043
:1003F000631A63AE02D0018E06D0019E04D0006A5B
:10040000016A026A036AB8EF03F0800ED8B25C1A80
:10041000616A626A58C060F05C50601A5750D8B484
:10042000DCD05F6E006E5B50D8B4E0D05F5ED8B4B5
:1004300081D03DE35CC065F0658E5DC064F05EC058
:1004400063F0626AD89065326432633262325F2E42
:10045000F8D760AE03D06180DDD061905F90618895
:10046000EA6A5A0EE96EE9D0619860BE0AD05FA0D0
:1004700013D06532643263326232002AD8B4C5D0F8
:100480000BD065BE0CD0D8906236633664366536C4
:100490000006D8B4BAD0F5D7618C6BD0619C58C037
:1004A00060F058AE02D0658EA9D0659EA7D05BC023
:1004B0005FF05BC000F057505F5E58C065F0658E1E
:1004C00059C064F05AC063F0626AD89065326432F1
:1004D000633262325F2EF8D760AE03D061829AD069
:1004E00061925F90618AEA6A5E0EE96EA6D0619AB7
:1004F00060BE0AD05FA013D06532643263326232CC
:10050000002AD8B482D00BD065BE0CD0D890623609
:100510006336643665360006D8B477D0F5D7618E79
:1005200028D0619E5CC060F05CAE02D0658E66D063
:10053000659E64D05CC065F0658E5DC064F05EC091
:1005400063F060AE04D0659E618464D06194626A99
:100550005F90EA6A5A0EE96E70D060BE1CD058C037
:1005600060F05FA006D06532643263326232002AE6
:100570004CE062AE0BD0632A09E1642A07E1652AE8
:1005800005E1653264326332002A3FE061BC86D700
:1005900061BEC7D71CD0800E651A65AE04D03AD0B4
:1005A0005CC060F00AD058C060F0655206E1645249
:1005B00004E1635202E1006A21D065BE08D0D89000
:1005C0006236633664366536002EF7D71ED060AECD
:1005D00002D0658E13D0659E11D05BC000F05CC068
:1005E00065F05DC064F05EC063F008D057C000F0F5
:1005F00058C065F059C064F05AC063F065C001F09E
:1006000064C002F063C003F034D0006A016A026A79
:10061000036A2FD0626A631E641E651E621E622A10
:1006200005E1632A03E1642A01E1652A61B015D777
:1006300061B256D761B48AD7B3D7EF50632605E3CA
:10064000642A03E1652AD8B45F80ED52EF50642636
:1006500003E3652AD8B45F80ED52EF50EFBE01D0BE
:10066000800A6526D8B05F8061B8FED661BA3FD7F0
:1006700074D712004B6A4A6A496A7F0E486E4F6A05
:100680004E6A4D6A4C6A508050925094526A44505F
:10069000451005E1006A016A026A036A03D15250FB
:1006A000522A036A4424E96E45500320EA6EEFCFD4
:1006B00051F05152D8B4BBD050A00FD051502008A7
:1006C0000CE0509051502B0803E15092A5D005D07A
:1006D00051502D0802E150829FD050B007D05150A8
:1006E0002E0804E150B402D0508496D050B091D07E
:1006F00051502F08D8B08DD051503908D8A089D08A
:10070000300E515E50A44FD04BC056F04AC055F049
:1007100049C054F048C053F05A6A596A200E586EC6
:10072000820E576E30DD03C04BF002C04AF001C0AC
:1007300049F000C048F0586A51C057F09DDD03C031
:1007400056F002C055F001C054F000C053F003C091
:100750005AF002C059F001C058F000C057F04BC029
:100760005EF04AC05DF049C05CF048C05BF09FD5C8
:10077000D8924FC05AF04EC059F04DC058F04CC0FE
:1007800057F003C05EF002C05DF001C05CF000C035
:100790005BF03BDE03C04FF002C04EF001C04DF0F5
:1007A00000C04CF035D0566A556A200E546E820E49
:1007B000536E4FC05AF04EC059F04DC058F04CC067
:1007C00057F0E1DC03C056F002C055F001C054F010
:1007D00000C053F0586A51C057F04EDDD89256C051
:1007E0005AF055C059F054C058F053C057F003C0E8
:1007F0005EF002C05DF001C05CF000C05BF005DEA1
:1008000003C04FF002C04EF001C04DF000C04CF0EC
:1008100003D050B001D00BD05250522A036A442466
:10082000E96E45500320EA6EEFCF51F042D750A257
:1008300017D0566A556A800E546E7F0E536E4FC0A5
:100840005AF04EC059F04DC058F04CC057F09BDCE8
:1008500003C04FF002C04EF001C04DF000C04CF09C
:100860004650471017E052520CE0520646C0E9FFCE
:1008700047C0EAFF52504424EF6E000E4520EC6E54
:1008800009D046C0E9FF47C0EAFF45C0ECFFED5282
:1008900044C0EFFF4CC000F04DC001F04EC002F06C
:1008A0004FC003F012008E0E006E4450005E45C033
:1008B00002F046C001F0028E005209E0D8900252C8
:1008C00002E1015204E002320132002EF7D745AEB8
:1008D00005D0011E021E012AD8B4022A1200F86AAD
:1008E000D09E078EB886A00EAF6E010EB06EA60E1B
:1008F000AC6E900EAB6E3B6A3C6A3D903D923D946F
:100900003E6A3F6A406AC150C00B0F09C16E070EB4
:10091000B46E05D002001600001840230000000E3F
:10092000F86E090EF76E140EF66E0900F550006EA3
:10093000000A13E00900F550016EE8BE05D00F0B68
:10094000EA6E0900F5CFE9FF01BC090001AC09001E
:10095000F5CFEEFF004EE9D7F9D7F86A000E926E98
:10096000936E800E946E000E956E820ED56E3C0EC8
:10097000D76EB00ED66EF28AC00EF2129D8A1E0E8F
:10098000F66E010EF76EADEC00F0560EF66E010E2F
:10099000F76EADEC00F01EA004D01C50BEEF00F0CE
:1009A0001E9021A06CD021903F2C21D03D80020EC2
:1009B000416E415004081AE3036A4150320F016E40
:1009C000000E032203C045F0036A4150230FE96E75
:1009D000000E0320EA6EEFCF46F045C0EAFF01C0EB
:1009E000E9FF46C0EFFF2280412AE3D748D03F50BD
:1009F000020821E13D82060E426E425008081AE3C9
:100A0000036A4250350F016E000E032203C045F009
:100A1000036A4250230FE96E000E0320EA6EEFCF07
:100A200046F045C0EAFF01C0E9FF46C0EFFF228063
:100A3000422AE3D724D03F50030821E13F6A3D8496
:100A40000A0E436E43500C081AE3036A4350380FF2
:100A5000016E000E032203C045F0036A4350230FCA
:100A6000E96E000E0320EA6EEFCF46F045C0EAFFC4
:100A700001C0E9FF46C0EFFF2280432AE3D722A04E
:100A800041D03DA014D03D903C6A456A320E446E80
:100A9000476A466AEFDD03C047F002C046F001C076
:100AA00045F000C044F0FFDE01C03CF02BD03DA279
:100AB00014D03D923C6A456A350E446E476A466AD8
:100AC000D9DD03C047F002C046F001C045F000C0C8
:100AD00044F0E9DE01C03CF015D03DA413D03D94B4
:100AE0003C6A456A380E446E476A466AC3DD03C0F5
:100AF00047F002C046F001C045F000C044F0D3DE2C
:080B000001C03CF048D70300DE
:020000040030CA
:0E0000000001181E000581000FC00FE00F4028
:00000001FF
;PIC18F4620
;CRC=9448  CREATED="28-jun.-19 13:34"
