:040000007BEF04F09E
:08000800046ED8CF05F0E0CF33
:1000100006F00001E9CF0CF0EACF07F0E1CF08F0DD
:10002000E2CF09F0D9CF0AF0DACF0BF0F3CF12F01C
:10003000F4CF13F0FACF14F000C00EF001C00FF0AF
:1000400002C010F003C011F0F2AA2AEF00F0F2B4DF
:1000500087EF00F09DAA30EF00F09EBA51EF00F05C
:100060000EC000F00FC001F010C002F011C003F08C
:100070000CC0E9FF07C0EAFF078E08C0E1FF09C016
:10008000E2FF0AC0D9FF0BC0DAFF12C0F3FF13C0B2
:10009000F4FF14C0FAFF045006C0E0FF05C0D8FF0B
:1000A00010009EAAFED7AECF1CF0036A3B50230F70
:1000B000E96E000E0320EA6E1CC0EFFF3B2A1E8093
:1000C0001D801C500D0801E11F803B500F0801E20C
:1000D0003B6A23503E080CE1020E3B5C036A230F8F
:1000E000E96E000E0320EA6EEF503C0801E120802B
:1000F000036A3B50230FE96E000E0320EA6EEF50B7
:100100003B0802E12180412A9E9A30EF00F0D76A35
:10011000380ED66E402AF29430EF00F0496E6772C6
:10012000657361206C6F73206461746F7320646504
:10013000206C61206D616E6572613A203E6F703196
:100140003B6F70323B6F70333B6361726163746508
:10015000723C00000A200D00456C206361726163EF
:1001600074657220696E6772657361646F20657370
:100170003A2000000900F5520DE0F6CF48F0F7CF25
:1001800049F0F5509EA8FED7AD6E48C0F6FF49C0B5
:10019000F7FFF0D712009EA8FED7AD6E12005750A1
:1001A000D8B471D0006E5B50D8B46DD0002604E393
:1001B000810E002668E204D07F0E005E64E363E0F7
:1001C00058C05FF05C505F1A588E5C8E5A505E02C9
:1001D000F4CF61F059505D02F4CF03F0F3CF60F03B
:1001E0005E02F3506126F4506022000E03225A5042
:1001F0005D02F3506126F4506022000E026A032271
:10020000022258505E02F3506026F4500322000E82
:10021000022258505D02F3500326F4500222000ED1
:10022000016A01225A505C02F3506026F450032206
:10023000000E0222012259505C02F3500326F450B2
:100240000222000E012258505C02F3500226F450A4
:100250000122002A01BE05D060360336023601367F
:100260000006000E60AE0AD0032A022201220150CD
:1002700005E1025003E1035001E1002A5FBE018E57
:100280005FAE019E04D0006A016A026A036A12002E
:100290008E0E006E5CC001F05BC002F0036A01527A
:1002A00009E102C001F0026A080E005E015202E19B
:1002B000006A08D0D89001BE04D00236013600068C
:1002C000F9D7019E12005B50D8B4A5D0676E5F507D
:1002D000D8B4A1D0675E05E37F0E6726D8B09BD067
:1002E00006D0810E675ED8A096D0D8B494D067C0EF
:1002F00000F0016A026A036A666A5CC065F0658E96
:100300005DC064F05EC063F0190E676E6250635E9C
:100310000DE2010E645E0AE2655E08E2665E06E2D8
:10032000662A652A642A6250632628D06150645E7A
:1003300012E2010E655E0FE2665E0DE2662A652A34
:10034000615064266250632619E3642A17E1652A26
:1003500015E1662A13D060508009655E0EE2010E39
:10036000665E0BE2662A605080096526615064264D
:10037000E9E3652AE7E1662AE5D70380672E01D025
:100380000BD0D8906336643665366636D89003361F
:10039000023601366836BAD768A006D0D890013246
:1003A00002320332683202D0000635E068BE1ED049
:1003B000D89063366436653666366250635E07E20F
:1003C000010E645E04E2655E02E2665E1AE361505D
:1003D000645E05E2010E655E02E2665E12E3605055
:1003E0008009655E03E2010E665E0BE3032A09E104
:1003F000022A07E1012A05E1002A0DE0013202325A
:1004000003325CC067F06050671A67AE02D0018E9D
:1004100006D0019E04D0006A016A026A036AC4EF32
:1004200003F0800ED8B2601A656A666A5CC064F038
:100430006050641A5B50D8B4DCD0636E006E5F50BD
:10044000D8B4E0D0635ED8B481D03DE360C069F039
:10045000698E61C068F062C067F0666AD8906932E0
:10046000683267326632632EF8D764AE03D0658097
:10047000DDD0659063906588EA6A5E0EE96EE9D02A
:10048000659864BE0AD063A013D0693268326732BF
:100490006632002AD8B4C5D00BD069BE0CD0D89033
:1004A00066366736683669360006D8B4BAD0F5D7EE
:1004B000658C6BD0659C5CC064F05CAE02D0698ECC
:1004C000A9D0699EA7D05FC063F05FC000F05B5009
:1004D000635E5CC069F0698E5DC068F05EC067F005
:1004E000666AD8906932683267326632632EF8D70E
:1004F00064AE03D065829AD065926390658AEA6A99
:10050000620EE96EA6D0659A64BE0AD063A013D0CD
:100510006932683267326632002AD8B482D00BD092
:1005200069BE0CD0D89066366736683669360006E4
:10053000D8B477D0F5D7658E28D0659E60C064F0BA
:1005400060AE02D0698E66D0699E64D060C069F0EA
:10055000698E61C068F062C067F064AE04D0699EC5
:10056000658464D06594666A6390EA6A5E0EE96E9B
:1005700070D064BE1CD05CC064F063A006D0693249
:10058000683267326632002A4CE066AE0BD0672ACA
:1005900009E1682A07E1692A05E1693268326732B0
:1005A000002A3FE065BC86D765BEC7D71CD0800E49
:1005B000691A69AE04D03AD060C064F00AD05CC059
:1005C00064F0695206E1685204E1675202E1006A90
:1005D00021D069BE08D0D89066366736683669364D
:1005E000002EF7D71ED064AE02D0698E13D0699E5C
:1005F00011D05FC000F060C069F061C068F062C0F7
:1006000067F008D05BC000F05CC069F05DC068F0C6
:100610005EC067F069C001F068C002F067C003F017
:1006200034D0006A016A026A036A2FD0666A671EC4
:10063000681E691E661E662A05E1672A03E1682AAC
:1006400001E1692A65B015D765B256D765B48AD776
:10065000B3D7EF50672605E3682A03E1692AD8B4C7
:100660006380ED52EF50682603E3692AD8B46380B3
:10067000ED52EF50EFBE01D0800A6926D8B06380FA
:1006800065B8FED665BA3FD774D712004F6A4E6A76
:100690004D6A7F0E4C6E536A526A516A506A54809A
:1006A00054925494566A4850491005E1006A016A10
:1006B000026A036A03D15650562A036A4824E96E37
:1006C00049500320EA6EEFCF55F05552D8B4BBD055
:1006D00054A00FD0555020080CE0549055502B08D2
:1006E00003E15492A5D005D055502D0802E1548263
:1006F0009FD054B007D055502E0804E154B402D016
:10070000548496D054B091D055502F08D8B08DD085
:1007100055503908D8A089D0300E555E54A44FD01A
:100720004FC05AF04EC059F04DC058F04CC057F071
:100730005E6A5D6A200E5C6E820E5B6E30DD03C009
:100740004FF002C04EF001C04DF000C04CF05C6AAA
:1007500055C05BF09DDD03C05AF002C059F001C0E6
:1007600058F000C057F003C05EF002C05DF001C059
:100770005CF000C05BF04FC062F04EC061F04DC055
:1007800060F04CC05FF09FD5D89253C05EF052C06D
:100790005DF051C05CF050C05BF003C062F002C07D
:1007A00061F001C060F000C05FF03BDE03C053F0B9
:1007B00002C052F001C051F000C050F035D05A6A6A
:1007C000596A200E586E820E576E53C05EF052C0AA
:1007D0005DF051C05CF050C05BF0E1DC03C05AF04A
:1007E00002C059F001C058F000C057F05C6A55C013
:1007F0005BF04EDDD8925AC05EF059C05DF058C033
:100800005CF057C05BF003C062F002C061F001C051
:1008100060F000C05FF005DE03C053F002C052F08C
:1008200001C051F000C050F003D054B001D00BD043
:100830005650562A036A4824E96E49500320EA6E4E
:10084000EFCF55F042D754A217D05A6A596A800E9A
:10085000586E7F0E576E53C05EF052C05DF051C0AF
:100860005CF050C05BF09BDC03C053F002C052F060
:1008700001C051F000C050F04A504B1017E05652E2
:100880000CE056064AC0E9FF4BC0EAFF5650482428
:10089000EF6E000E4920EC6E09D04AC0E9FF4BC054
:1008A000EAFF49C0ECFFED5248C0EFFF50C000F036
:1008B00051C001F052C002F053C003F012008E0E7E
:1008C000006E4850005E49C002F04AC001F0028E3E
:1008D000005209E0D890025202E1015204E00232D3
:1008E0000132002EF7D749AE05D0011E021E012AA3
:1008F000D8B4022A1200F86AD09E078EB896190E54
:10090000AF6EA60EAC6E900EAB6E3B6A3C6A3D6A53
:100910003E6A3F903F923F943F963F983F9A3F9C5C
:10092000406A416A010E426E436E446EC150C00B74
:100930000F09C16E070EB46E05D002001600001834
:1009400040230000000EF86E090EF76E3A0EF66EA8
:100950000900F550006E000A13E00900F550016E21
:10096000E8BE05D00F0BEA6E0900F5CFE9FF01BC28
:10097000090001AC0900F5CFEEFF004EE9D7F9D729
:10098000F86A000E926E936E800E946E000E956E55
:10099000840ED56ED76A380ED66EF28AC00EF21269
:1009A0009D8A1C0EF66E010EF76EBAEC00F0540E26
:1009B000F66E010EF76EBAEC00F01EA004D01C50CB
:1009C000CBEC00F01E9021A06CD02190412C21D0C6
:1009D0003F80020E456E455004081AE3036A4550F5
:1009E000320F016E000E032203C049F0036A455026
:1009F000230FE96E000E0320EA6EEFCF4AF049C0E4
:100A0000EAFF01C0E9FF4AC0EFFF2280452AE3D791
:100A100048D04150020821E13F82060E466E465002
:100A200008081AE3036A4650350F016E000E0322D0
:100A300003C049F0036A4650230FE96E000E0320FD
:100A4000EA6EEFCF4AF049C0EAFF01C0E9FF4AC0B1
:100A5000EFFF2280462AE3D724D04150030821E14A
:100A6000416A3F840A0E476E47500C081AE3036A36
:100A70004750380F016E000E032203C049F0036A8D
:100A80004750230FE96E000E0320EA6EEFCF4AF0C5
:100A900049C0EAFF01C0E9FF4AC0EFFF2280472AB0
:100AA000E3D722A041D03FA014D03F903C6A496ACE
:100AB000320E486E4B6A4A6AE9DD03C04BF002C051
:100AC0004AF001C049F000C048F0F9DE01C03CF036
:100AD0002BD03FA214D03F923D6A496A350E486E32
:100AE0004B6A4A6AD3DD03C04BF002C04AF001C032
:100AF00049F000C048F0E3DE01C03DF015D03FA44E
:100B000013D03F943E6A496A380E486E4B6A4A6A6F
:100B1000BDDD03C04BF002C04AF001C049F000C087
:100B200048F0CDDE01C03EF01DA03DD01D9020A0BC
:100B30003AD020901FA037D01F903C500C0B02E001
:100B40003F8605D03C500C0B0C0801E03F963D5011
:100B5000110B02E03F8805D03D50110B110801E058
:100B60003F983E50420B02E03F8A05D03E50420B78
:100B7000420801E03F9A3C50800B08E03D50800B5A
:100B800005E03E50800B02E03F8C0DD03C50800BC6
:100B9000800809E03D50800B800805E03E50800B46
:100BA000800801E03F9C3FA60CD03F96402C07D028
:100BB000D89042364250800802E1010E426E42C097
:100BC00089FF3FA80DD04050030808E13F98D89016
:100BD00043364350800802E1010E436E43C08AFF52
:100BE0003FAA0DD04050050808E13F9AD8904436FE
:100BF0004450800802E1010E446E44C08CFF3FACBB
:100C00000AD03F9C580EF66E010EF76EBAEC00F05B
:0A0C10003050CBEC00F0D1D6030009
:020000040030CA
:0E0000000001181E000581000FC00FE00F4028
:00000001FF
;PIC18F4620
;CRC=F618  CREATED="28-jun.-19 14:55"
